:100000000C9410090C9438090C9438090C94380994
:100010000C9438090C9438090C9438090C9438095C
:100020000C9438090C9438090C9438090C9438094C
:100030000C9438090C9438090C9438090C9438093C
:100040000C94E01C0C9438090C941F1F0C946D1F29
:100050000C9438090C9438090C9438090C9438091C
:100060000C9438090C9438090608205F0000000041
:1000700000000000002F000000000700070000142F
:100080007F147F1400242A7F2A120023130864623D
:1000900000364955225000000503000000001C22D4
:1000A0004100000041221C000014083E0814000812
:1000B000083E0808000000A06000000808080808C2
:1000C000000060600000002010080402003E51495A
:1000D000453E0000427F40000042615149460021F8
:1000E00041454B31001814127F1000274545453912
:1000F000003C4A494930000171090503003649496D
:10010000493600064949291E000036360000000025
:100110005636000000081422410000141414141470
:100120000000412214080002015109060032495919
:10013000513E007C1211127C007F49494936003E35
:1001400041414122007F4141221C007F49494941F0
:10015000007F09090901003E4149497A007F0808EA
:10016000087F0000417F4100002040413F01007FA7
:1001700008142241007F40404040007F020C027F73
:10018000007F0408107F003E4141413E007F090985
:100190000906003E4151215E007F091929460046AB
:1001A000494949310001017F0101003F4040403F82
:1001B000001F2040201F003F4038403F00631408CC
:1001C00014630007087008070061514945430000A7
:1001D0007F414100AA55AA55AA55000041417F0020
:1001E00000040201020400404040404000000305BA
:1001F0000000002054545478007F484444380038AC
:100200004444442000384444487F0038545454182F
:1002100000087E0901020018A4A4A47C007F080441
:1002200004780000447D4000004080847D00007F11
:10023000102844000000417F4000007C041804782E
:10024000007C0804047800384444443800FC24242A
:1002500024180018242418FC007C08040408004812
:100260005454542000043F444020003C4040207C33
:10027000001C2040201C003C4030403C0044281022
:100280002844001CA0A0A07C004464544C440000FE
:10029000107C8200000000FF00000000827C100043
:1002A0000000060909060C102D0D0000008080805A
:1002B00080808000000000000103030303030301AA
:1002C000000000000000000000000000000000002E
:1002D000000000C0C000000000000000028686860A
:1002E000868686020000000081C3C3C3C3C3C381E6
:1002F000000000FC7A0606060606067AFC00007E70
:10030000BCC0C0C0C0C0C0BC7E0000000000000077
:1003100000000078FC000000000000000000003C2D
:100320007E000000028686868686867AFC00007E35
:10033000BDC3C3C3C3C3C381000000000286868659
:100340008686867AFC00000081C3C3C3C3C3C3BDD5
:100350007E0000FC7880808080808078FC00000037
:10036000010303030303033D7E0000FC7A868686B7
:10037000868686020000000081C3C3C3C3C3C3BD19
:100380007E0000FC7A868686868686020000007ED5
:10039000BDC3C3C3C3C3C3BD7E00000002060606BF
:1003A0000606067AFC000000000000000000003C89
:1003B0007E0000FC7A8686868686867AFC00007E31
:1003C000BDC3C3C3C3C3C3BD7E0000FC7A8686869B
:1003D0008686867AFC00000081C3C3C3C3C3C3BD45
:1003E0007E000E182D0D000000000000000000002F
:1003F000000000000000103838383838383838101D
:1004000000000000000000000000000000000000EC
:1004100000000000000000000000000000000000DC
:1004200000000000000000000000000000000000CC
:100430000040E0E0400000000000000002060E0E58
:100440000E0E0E0E06020000000010383838383844
:10045000383838100000000080C0E0E0E0E0E0E064
:10046000C080000000FCFAF60E0E0E0E0E0EF6FA1C
:10047000FC0000EFC78300000000000083C7EF000E
:10048000007FBFDFE0E0E0E0E0E0DFBF7F000000F2
:100490000000000000000000F0F8FC000000000078
:1004A00000000000000083C7EF0000000000000013
:1004B000000000001F3F7F00000002060E0E0E0E1F
:1004C0000E0EF6FAFC0000E0D0B83838383838386C
:1004D0003B170F00007FBFDFE0E0E0E0E0E0C0801E
:1004E0000000000002060E0E0E0E0E0EF6FAFC00C4
:1004F00000001038383838383838BBD7EF000000E3
:1005000080C0E0E0E0E0E0E0DFBF7F0000FCF8F06A
:10051000000000000000F0F8FC00000F173B383826
:1005200038383838BBD7EF0000000000000000006A
:1005300000001F3F7F0000FCFAF60E0E0E0E0E0E9E
:1005400006020000000F173B383838383838B8D06A
:10055000E000000080C0E0E0E0E0E0E0DFBF7F001E
:1005600000FCFAF60E0E0E0E0E0E0602000000EF54
:10057000D7BB383838383838B8D0E000007FBFDF14
:10058000E0E0E0E0E0E0DFBF7F00000002060E0EEA
:100590000E0E0E0EF6FAFC00000000000000000037
:1005A000000083C7EF000000000000000000000012
:1005B0001F3F7F0000FCFAF60E0E0E0E0E0EF6FA2E
:1005C000FC0000EFD7BB383838383838BBD7EF00DD
:1005D000007FBFDFE0E0E0E0E0E0DFBF7F0000FCA5
:1005E000FAF60E0E0E0E0E0EF6FAFC00000F173B7A
:1005F000383838383838BBD7EF00000080C0E0E02A
:10060000E0E0E0E0DFBF7F0018282D0D00000000D3
:1006100000000000000000000000000000000000DA
:1006200000000000000000000000000000000000CA
:1006300000000000000000000000000000000000BA
:1006400000000000000000000000000000000000AA
:10065000000000000000000000000000000000009A
:10066000000000000000000000000000000000008A
:10067000000000000000000000000000000000007A
:10068000000000000000000000000000000000006A
:10069000000000000000000000000000000000005A
:1006A000000000000000000000000000000000004A
:1006B000000000000000000000000000000000003A
:1006C000000000000000000000000000000000002A
:1006D0000000000070F8FCFEFEFCF8700000000056
:1006E0000000000000000000000000000000010306
:1006F00003010000000000000000000000000000F6
:10070000000000000080C0C0C080000000000000A9
:10071000000000000000000000000000070F1F3F65
:100720003F1F0F0600000000000000000000000056
:1007300000000000000000000000000000000000B9
:10074000000000000000000000000000387CFEFFF8
:10075000FFFE7C38000000000000000000000000E8
:100760000000000000000001010000000000000087
:100770000000000000000000000080C0E0F0F8F879
:10078000F8F0F0E0C0800000000000000000C0F0C1
:10079000FCFE3F07010303070F1F3FFFFFFFFFFCA6
:1007A000F000000000FCFFFFFFFFC00000000000A1
:1007B0000000000007FFFFFFFF3F000000000F3FA9
:1007C000FFFFFFFFFCF8F0E0E0C080E0F8FF3F0F24
:1007D000030000000000000000010307070F1F1FB7
:1007E0001F0F0703010000000000000000000000D0
:1007F00000000080C0E0F0F0E0C000000000000059
:1008000000000000000000000002070707FFFFFFD4
:10081000FFFFFF00000000000000000000000000DB
:100820000000000000FFFFFFFFFFFF0000000000CE
:1008300000000000000000000000000000FFFFFFBB
:10084000FFFFFF008080800000000000000000002B
:100850000000000007070F1F3F3F1F0F07030100A5
:100860000000000000000000000080C0E0F0F8F888
:10087000F0F0E0C080800000000000000000081CD4
:100880003E7F7F3F1F0F0703030183FFFFFFFFFE34
:10089000FE00000000000000000000000080C0E03A
:1008A000F8FCFFFF7F3F1F070100000000000080F1
:1008B000E0F0F8FEDFEFEFE7E3E1E1E0E0C0C0C029
:1008C000C080000000001E1F0F0F0F07070707075B
:1008D00007070F0F1F1F0F07030000000000000095
:1008E00080C0E0E0F0F8F8F8F0F0E0E0C0C0808010
:1008F0000000000000000003070F1F0F0703018125
:10090000C0F0FFFFFFFFFF3F0000000000000000FD
:1009100000000E0E0E0F0F0F1F3FFFFFFFF9F0E05C
:10092000C000000000183C7EFFFFFEFCF8F0E0C0B5
:100930008000C1FFFFFFFFFF3F000000000000003C
:10094000000103070F0F0F0F070707030301000044
:10095000000000000000000000000000000080E037
:10096000F8F8F8F0E00000000000000000000000CF
:1009700000C0E0F83C1F0703FFFFFFFFFF0000007F
:10098000000000000000F8FCFFE7E3E0E0E0E0E04A
:10099000FFFFFFFFFFE0E0E0E0E0000000000303F6
:1009A00003030303030303C3FFFFFFFFFFC383C36B
:1009B000C30300000000000000000000000001036D
:1009C00003070F0F0F0703010100000000000000E4
:1009D0000000F8F8F8F8F8F8F8F8F8F8F8F87810EF
:1009E000000000000000000080FFFF070181C1C17E
:1009F000E1F1E1E1C1810000000000000000002001
:100A00003F3F1F0E070707070F1F3FFFFFFFFFFEB8
:100A1000F8000000000060F0FCFCFCF8F0F0E0C022
:100A2000C08080E0FFFF7F3F070000000000000063
:100A300001010307070F0F0F0F0707030101000054
:100A4000000000000000000000000080C0E0F0F89E
:100A5000F8F8F0F0E0C0C08000000000000000E006
:100A6000F8FCFE7F0F0101038387CFCFDF8F0701E3
:100A7000000000000000FFFFFFFFFFB81C1E0E0774
:100A80000F1F3F7FFFFFFFFEF800000000000F3F39
:100A9000FFFFFFFFFCF8F0E0C0C080E0FFFF3F1F5A
:100AA000070000000000000000010307070F0F0F00
:100AB0000F07030301000000000000000000000019
:100AC000C0F0F8F8F8F8F8F8F8F8F8F8F8F8F8F8E6
:100AD000783800000000181E1F0703030101018180
:100AE000C1F1F9FD3F0F030100000000000000000C
:100AF00000000080F0FCFEFFFF3F07000000000048
:100B0000000000000000000000E0FEFFFFFFFFFF0C
:100B100003000000000000000000000000000000D2
:100B2000000F0F0F07070703000000000000000080
:100B300000000000000000000080E0F0F8F8F8F885
:100B4000F8F8F8F8F0E0C080000000000000F0FCC9
:100B5000FFFFE7C1C18181818183C3FFFF7F3F0F19
:100B600000000000000003CFFFFF7F3F3F3F3F3FFB
:100B70003F3F7F7FFFFFFEF8E00000000000FFFF27
:100B8000FFFFF8F0E0E0C0C0C0C0C0E0E0FB7F1FA6
:100B9000070000000000000307070F0F0F0F1F1FC3
:100BA0000F0F07030100000000000000000000001C
:100BB0000080C0E0F0F0F8F8F8F0E0E0C08000005D
:100BC0000000000000C0F8FEFFFF870101010307DD
:100BD0000F1F7FFFFFFFFEFCE000000000031F7FF0
:100BE000FFFFFFFEFCF8F070383C1ECFFFFFFFFF59
:100BF0003F000000000000E0F0F9FDFBF1F0E0C074
:100C0000C0E0FCFF7F1F0F0100000000000000009B
:100C100001030307070F0F0F070301000000000087
:100C2000000000000406205F00000003A000C00CCC
:100C300000F94F806BEB00988C8052A58003000078
:100C400001C88089C00050850021C20008400020F2
:100C50008200002000188C00FA2F804BE0805A663A
:100C6000808AA500E08F80EAAB0072A9009A8C0010
:100C7000FAAF804AA7000140000940002148805196
:100C8000450089420042660072A6807A8780FAA5F4
:100C900000722500FA2700FAA880FA8800722B005B
:100CA000F88F808BE8808BE800F88D80F82080F941
:100CB0000F80F9CF80722700FA8400722740FA85EE
:100CC000804AA90083E800F02F00E06E00F0EF00FA
:100CD000D88D80C0EC009AAC8003E880C081808B06
:100CE000E000420400082080020400312380F92340
:100CF00000312480312F8031628023EA0025538027
:100D0000F9038002E00006E000F8428003E0007989
:100D100087803903803123007D23003127C0788408
:100D20000029400043E400702700606600706700FF
:100D300048C48074578059E68023E8800360008BA4
:100D4000E200610C000608205F00000000000000C7
:100D500000002F000000000700070000147F147F30
:100D60001400242A7F2A12002313086462003649E3
:100D700055225000000503000000001C2241000025
:100D80000041221C000014083E08140008083E0818
:100D900008003E49454538000808080808007C104E
:100DA000384438002010080402003E5149453E00F6
:100DB00000427F4000004261514946002141454BBD
:100DC00031001814127F10002745454539003C4A70
:100DD0004949300001710905030036494949360087
:100DE000064949291E00730C7F0C73004C307C307F
:100DF0004C007F49494931001414141414007F1029
:100E00003E413E00020151090600324959513E005F
:100E10001C227F221C007F1008047F003E414141BC
:100E200022007F4545453A006126180601007C12E4
:100E300011127C007F0101017F007F090909060072
:100E40007F407F407F003E4141413E00403F0101E5
:100E50007F00603F213F60007F4848300000030171
:100E60007F0103003F203F207F002141494D330097
:100E70007E2011087E007F08142241007F48780000
:100E80007F007F49494941007F01010103007F063E
:100E900008067F003F20203F6000070808087F0009
:100EA0007F0808087F00661909097F004428102878
:100EB00044AA55AA55AA5500047C507000000402AB
:100EC00001020400404040404000424252523C0077
:100ED00018247E2418007C20107C000038444444F0
:100EE00028007E4A4A3400004C9090907C002054A8
:100EF000547840007C04047C0000FC182424180072
:100F00007C407C407C00384444443800403C04042D
:100F10007C00384545493E007C50700000000404C8
:100F20007C0404003C203C207C0024424A34000025
:100F30007C21117C00007C10284400007C50700053
:100F40007C003854545418007C04040C00007C08C5
:100F500010087C003C20203C60001C10107C00002D
:100F60007C10107C0000402C127E000063140814DA
:100F700063000000FF000000017F48483000414945
:100F8000492A1C0608205F00000000000000000045
:100F90002F000000000700070000147F147F1400DA
:100FA000242A7F2A1200231308646200364955223E
:100FB0005000000503000000001C22410000004119
:100FC000221C000014083E08140008083E0808000F
:100FD0003E49454538000808080808007C10384498
:100FE00038002010080402003E5149453E000042EE
:100FF0007F4000004261514946002141454B31008C
:101000001814127F10002745454539003C4A4949CC
:101010003000017109050300364949493600064987
:1010200049291E00730C7F0C73004C307C304C003F
:101030007F49494931001414141414007F103E41B3
:101040003E00020151090600324959513E001C225E
:101050007F221C007F1008047F003E414141220096
:101060007F4545453A006126180601007C121112A1
:101070007C007F0101017F007F09090906007F4094
:101080007F407F003E4141413E00403F01017F00E3
:10109000603F213F60007F484830000003017F012E
:1010A00003003F203F207F002141494D33007E2037
:1010B00011087E007F081422410000417F4100009A
:1010C0007F49494941007F01010103007F0608066D
:1010D0007F003F20203F6000070808087F007F084E
:1010E00008087F00661909097F004428102844AACF
:1010F00055AA55AA550000457C4100000402010292
:10110000040040404040400038545444000018243B
:101110007E2418007C20107C0000384444442800C1
:101120007E4A4A3400004C9090907C0020545478C1
:1011300040007C04047C0000FC18242418007C403F
:101140007C407C00384444443800403C04047C002B
:10115000384545493E007C507000000004047C0482
:1011600004003C203C207C0024424A3400007C21C6
:10117000117C00007C102844000000447D400000E9
:101180003854545418007C04040C00007C081008E7
:101190007C003C20203C60001C10107C00007C1077
:1011A000107C0000402C127E0000631408146300C1
:1011B0000000FF00000000457C4500003C6A4949F2
:1011C0004900000000240027002A0000000000253C
:1011D0000028002B00000000002300260029000446
:1011E00004040404040404020202020202030303CE
:1011F00003030301020408102040800102040810C8
:101200002001020408102000000007000201000075
:10121000030406000000000000000000610B5220E3
:1012200011241FBECFEFD8E0DEBFCDBF12E0A0E09B
:10123000B1E0ECEFFAE402C005900D92A43EB107D4
:10124000D9F717E0A4EEB2E001C01D92A43DB107AA
:10125000E1F712E1C0E2D2E104C02297FE010E9450
:101260004125CC31D107C9F70E94A8200C947C25D8
:101270000C940000CF93DF93BC018230910510F4F1
:1012800062E070E0A091D207B091D307ED01E0E0F9
:10129000F0E040E050E021C08881998186179707EF
:1012A00069F48A819B81309719F09383828304C00B
:1012B0009093D3078093D207FE0134C06817790753
:1012C00038F44115510519F08417950708F4AC015D
:1012D000FE018A819B819C01E9012097E9F6411575
:1012E0005105A9F1CA01861B970B049708F4BA01AE
:1012F000E0E0F0E02AC08D919C911197841795074A
:10130000F9F46417750781F412968D919C911397E7
:10131000309719F09383828304C09093D30780930E
:10132000D207FD0132964CC0CA01861B970BFD0106
:10133000E80FF91F6193719302978D939C9340C0BE
:10134000FD01828193819C01D9011097A1F68091C2
:10135000D0079091D107892B41F48091940290910C
:1013600095029093D1078093D007409196025091B7
:1013700097024115510541F44DB75EB78091920235
:1013800090919302481B590B2091D0073091D107BF
:10139000CA01821B930B8617970780F0AB014E5F43
:1013A0005F4F8417950750F0420F531F5093D1079A
:1013B0004093D007F9016193719302C0E0E0F0E03F
:1013C000CF01DF91CF910895CF93DF93009709F478
:1013D00050C0EC0122971B821A82A091D207B091D3
:1013E000D307109709F140E050E0AC17BD0708F1B2
:1013F000BB83AA83FE0121913191E20FF31FAE1747
:10140000BF0779F48D919C911197280F391F2E5F9A
:101410003F4F3983288312968D919C9113979B831C
:101420008A834115510571F4D093D307C093D20735
:1014300020C012968D919C911397AD01009711F0E9
:10144000DC01D3CFFA01D383C28321913191E20F22
:10145000F31FCE17DF0769F488819981280F391FA0
:101460002E5F3F4FFA01318320838A819B819383D2
:101470008283DF91CF910895A0E0B0E0E2E4FAE04A
:101480000C9447256C01009729F4CB010E943A097E
:101490006C01C1C08EEF882E8FEF982E8C0C9D1C96
:1014A0008601060F171F0815190508F4B2C0F401CC
:1014B000A081B181A617B707B8F0A530B10508F42F
:1014C000AAC0CD0104978617970708F4A4C0129705
:1014D000A61BB70BF801A193B193D4016D937C9334
:1014E000CF010E94E40997C07B01EA1AFB0AEEEFE4
:1014F000FFEFEE0EFF1E36016A0E7B1EC091D20773
:10150000D091D30744245524AA24BB244AC0C6152D
:10151000D705E1F5488159814E155F05B8F1CA013B
:1015200004978E159F05B0F41296A40FB51FF40111
:10153000B183A0832A813B814114510431F0D2014F
:1015400013963C932E93129766C03093D307209343
:10155000D20761C08A819B81F801938382834250C4
:1015600050404E195F09518340834114510431F0BA
:10157000D20113961C930E93129704C01093D307B5
:101580000093D207F4017183608345C088819981FB
:10159000A816B90608F45C012E018A819B819C0182
:1015A000E901209709F0B3CF8091D0079091D1073E
:1015B00086159705E9F4A616B706D0F42091960291
:1015C000309197022115310541F42DB73EB7809136
:1015D000920290919302281B390B02171307C8F44B
:1015E0001093D1070093D007D4016D937C9313C05F
:1015F000CB010E943A09EC01009759F0F4014081B7
:101600005181B6010E94110BC6010E94E4096E01CE
:1016100002C0CC24DD24C601CDB7DEB7E0E10C94D6
:101620006325FB01DC0102C001900D924150504046
:10163000D8F70895FB01DC0101900D920020E1F73D
:101640000895FB01DC014150504048F001900D929B
:101650000020C9F701C01D9241505040E0F70895A5
:10166000FB019F01E8944230C4F04532B4F44A30A3
:1016700029F497FB1EF4909581959F4F642F77274F
:101680000E941825805D8A330CF0895D8193CB011F
:101690000097A1F716F45DE251931082C9010C94F2
:1016A000510BDC01FC01672F71917723E1F7329731
:1016B00004C07C916D9370836291AE17BF07C8F32D
:1016C000089584EE92E062E143E10E94AB168EEE53
:1016D00092E062E143E128E00E942C1289EF96E05B
:1016E00062E046E126E00E943D1B08958F929F92A2
:1016F000AF92BF92CF92DF92EF92FF920F931F9320
:10170000DF93CF93CDB7DEB765970FB6F894DEBF02
:101710000FBECDBF4C018EEA97E060E071E00E9401
:101720001D2194EEA92E92E0B92EC50162E00E941F
:10173000C31ABC016E010894C11CD11CC6010E94D1
:101740001E228EEEE82E82E0F82EC7010E94F115CF
:10175000C70168E670E00E94CB138E01085F1F4F3F
:10176000C801B60140E050E025E030E00E9482224E
:10177000C701B80142E650E020E030E00E94AE151B
:10178000C8010E94EB22C50162E041E02EE20E9406
:101790006C19BC01C70140E050E020E030E00E943D
:1017A0004015C70165E47DE00E94CB138E01015F07
:1017B0001F4FC801B4010E94E022C701B8014EE0EA
:1017C00057E229E330E00E94AE15C8010E94EB22E7
:1017D000C6010E94EB2265960FB6F894DEBF0FBEDD
:1017E000CDBFCF91DF911F910F91FF90EF90DF90D0
:1017F000CF90BF90AF909F908F9008950F931F93BD
:10180000DF93CF93CDB7DEB727970FB6F894DEBF3F
:101810000FBECDBF8EEA97E066E071E00E941D2109
:101820008E010F5F1F4FC8016CE071E00E941E2205
:10183000C8010E94760BC8010E94EB228EEE92E056
:1018400065E171E040E050E02CE030E00E9440159E
:1018500080910707882329F08EEE92E065E271E01F
:1018600004C08EEE92E068E271E04FE057E22CE0B7
:1018700030E00E9440158EEE92E06CE271E040E0B4
:1018800050E026E130E00E9440158091080788234F
:1018900029F08EEE92E065E271E004C08EEE92E0F7
:1018A00068E271E04FE057E226E130E00E94401527
:1018B0008EEE92E06CE371E040E050E020E230E038
:1018C0000E94401580910807882329F08EEE92E04F
:1018D00063E471E004C08EEE92E067E471E04FE0F3
:1018E00057E220E230E00E9440158EEE92E00E9426
:1018F000BD148EEE92E00E94F11527960FB6F89473
:10190000DEBF0FBECDBFCF91DF911F910F91089524
:10191000EF92FF920F931F93DF93CF93CDB7DEB774
:1019200065970FB6F894DEBF0FBECDBF8EEA97E085
:101930006CE471E00E941D2180E00E94D41D7C01B6
:101940008E010F5F1F4FC80162E571E00E941E22E9
:10195000C8010E94760BC8010E94EB228EEE92E035
:1019600066EA72E00E94CB138E01085F1F4FC80128
:10197000B7014AE00E9451228EEA97E0B8010E9426
:101980006321C8010E94EB228E01015F1F4FC80135
:10199000B7014AE00E9451228EEE92E0B8014EE07B
:1019A00057E22CE030E00E94AE15C8010E94EB2205
:1019B0008EEE92E065E47DE00E94CB1383ECE816A6
:1019C00081E0F8062CF48EEE92E062E671E011C040
:1019D0008DE39EEFE80EF91E99EFE916F10428F465
:1019E0008EEE92E06FE671E004C08EEE92E06DE75D
:1019F00071E04EE057E228E230E00E9440158EEEA2
:101A000092E00E94BD148EEE92E00E94F115659660
:101A10000FB6F894DEBF0FBECDBFCF91DF911F91FF
:101A20000F91FF90EF900895CF92DF92EF92FF9287
:101A30000F931F93DF93CF93CDB7DEB765970FB6A4
:101A4000F894DEBF0FBECDBF2EEEE22E22E0F22EC6
:101A5000C70168E670E00E94CB1304EE12E0C801F3
:101A600062E00E940D19BC01C7014EE057E220E080
:101A700030E00E944015C80162E00E94C31ABC0118
:101A80006E010894C11CD11CC6010E941E22C8010F
:101A900062E041E02EE20E946C19BC01C7014EE0F9
:101AA00057E229E330E00E944015C70168E076E084
:101AB0000E94CB138E01085F1F4FC801B60140E0A2
:101AC00050E022E030E00E948222C701B80144E0E9
:101AD00050E02CE030E00E94AE15C8010E94EB22DD
:101AE000C70169E871E043E350E02CE030E00E9478
:101AF00040158E01015F1F4FC801B60143E050E061
:101B000025E030E00E948222C701B8014BE450E09A
:101B10002CE030E00E94AE15C8010E94EB22C70104
:101B20000E94BD14C6010E94EB2265960FB6F89480
:101B3000DEBF0FBECDBFCF91DF911F910F91FF9000
:101B4000EF90DF90CF900895CF92DF92EF92FF92C7
:101B50000F931F93DF93CF9300D000D0CDB7DEB7A4
:101B60007C0149835A836B837C8300E010E06E0123
:101B70000894C11CD11CB8016E0D7F1DF601E00F49
:101B8000F11F8CE197E040810E94D41C0F5F1F4F32
:101B90000430110581F70F900F900F900F90CF91A7
:101BA000DF911F910F91FF90EF90DF90CF900895FC
:101BB000CF92DF92EF92FF920F931F93DF93CF9319
:101BC00000D000D0CDB7DEB77C0100E010E06E01A0
:101BD0000894C11CD11CB8016E0D7F1D8CE197E0EB
:101BE0000E94CD1CF601E00FF11F80830F5F1F4F95
:101BF0000430110581F729813A814B815C81B9015B
:101C0000CA010F900F900F900F90CF91DF911F910D
:101C10000F91FF90EF90DF90CF9008958EEE92E0BD
:101C20000E94FC1584EE92E00E94541789EF96E022
:101C30000E94441B8DE061E00E94F61D8CE061E093
:101C40000E94F61D80E090E00E94D80D60939802FB
:101C50007093990280939A0290939B0284E090E0A3
:101C60000E94D80D60939C0270939D0280939E0207
:101C700090939F0208952F923F924F925F926F929E
:101C80007F928F929F92AF92BF92CF92DF92EF920C
:101C9000FF920F931F93DF93CF93CDB7DEB72D97AE
:101CA0000FB6F894DEBF0FBECDBF9E838D833A0181
:101CB0004B0138872F831A870987EB86CB01BA013E
:101CC00020E030E040E050E00E94562388232CF4CE
:101CD00020E030E040E05FEB04C020E030E040E096
:101CE0005FE300E010E00CC0CA01B90120E030E081
:101CF00040E251E40E945A239B01AC010F5F1F4F49
:101D00008F819885081719077CF3C401B3010E94DD
:101D1000F2225B016C01C401B30120E030E040E03D
:101D200050E00E945623882324F4D7FAD094D7F8A1
:101D3000D0940F2EFDEC2F2EFCEC3F2EFCEC4F2E02
:101D4000FDE35F2EF02D1C821B8207C0AB81BC819E
:101D50001196BC83AB8317012801C201B10120E0B9
:101D600030E040E251E40E94A9247B018C01A601ED
:101D700095010E94562318164CF7EB81FC81EF2B3E
:101D800019F402E010E004C00B811C810F5F1F4FAB
:101D9000C401B30120E030E040E050E00E9456234F
:101DA000882314F40F5F1F4F2F8138852F5F3F4F1B
:101DB000C901800F911F2150304038872F8309853A
:101DC0001A850F5F1F4F801791072CF01D861C8608
:101DD0001A8219821EC0A801481B590B5A834983D5
:101DE00014161506A4F45B85552389F080E090E075
:101DF00020E2ED81FE81E80FF91F20830196A98181
:101E0000BA818A179B07ACF3BD87AC8702C01D86D9
:101E10001C86C401B30120E030E040E050E00E94A5
:101E20005623882364F4ED81FE812C853D85E20FE5
:101E3000F31F8DE280832F5F3F4F3D872C874B81BF
:101E40005C81452B69F4ED81FE818C859D85E80FD1
:101E5000F91F80E38083AC85BD851196BD87AC8773
:101E60006D807E80EC85FD856E0E7F1E8824992412
:101E70003AC0C601B501A20191010E945A230E94F5
:101E8000C223DC01CB017C012C853D852F5F3F4FB8
:101E90003D872C87B3014AE050E00E94300B0027B9
:101EA000F7FC0095102FC801B7010E94F523A2018D
:101EB00091010E94A9249B01AC01C601B5010E94B9
:101EC000F1225B016C01C201B10120E030E040E28F
:101ED00051E40E945A231B012C010894811C911C7F
:101EE0000894611C711C4B815C81841695060CF270
:101EF0008F819885181619065CF4ED81FE81AC85FA
:101F0000BD85EA0FFB1F8EE280831196BD87AC87EB
:101F10006D807E80EC85FD856E0E7F1E8824992461
:101F200030C0C601B50120E030E040E251E40E943B
:101F3000A9245B016C010E94C223DC01CB017C015E
:101F40002C853D852F5F3F4F3D872C87B3014AE0AD
:101F500050E00E94300B0027F7FC0095102FC801BD
:101F6000B7010E94F5239B01AC01C601B5010E9497
:101F7000F1225B016C010894811C911C0894611C86
:101F8000711C4F815885841695065CF289819A816F
:101F900018161906CCF49B859923B1F4ED81FE81C6
:101FA000AC85BD85EA0FFB1F80E090E020E2219325
:101FB000019649815A8184179507CCF38C859D85BC
:101FC000840F951F9D878C87AC85BD85ED81FE8133
:101FD000AE0FBF1F1C928D819E812D960FB6F89477
:101FE000DEBF0FBECDBFCF91DF911F910F91FF904C
:101FF000EF90DF90CF90BF90AF909F908F907F90A9
:102000006F905F904F903F902F9008958F929F9286
:10201000AF92BF92CF92DF92EF920F931F93DF9315
:10202000CF93CDB7DEB727970FB6F894DEBF0FBEBC
:10203000CDBF8EEA97E06BE871E00E941D2189EF29
:1020400096E00E94101C4B015C013EEEC32E32E074
:10205000D32EC6010E94F1158E010F5F1F4FC801DC
:102060006FE871E00E941E22C8010E94760BC80131
:102070000E94EB22C60168E076E00E94CB138AE062
:1020800097E0B501A40122E030E000E010E0EE248A
:102090000E943B0EBC01C6014EE057E22CE030E04E
:1020A0000E944015C6010E94BD14C6010E94F11590
:1020B00027960FB6F894DEBF0FBECDBFCF91DF914C
:1020C0001F910F91EF90DF90CF90BF90AF909F90B6
:1020D0008F900895AF92BF92CF92DF92EF920F93BD
:1020E0001F93DF93CF93CDB7DEB72E970FB6F8943B
:1020F000DEBF0FBECDBF8EEA97E069E971E00E94B6
:102100001D2189EF96E060E00E94611C5B016C017B
:1021100084EE92E062E00E94C31ABC01CE010196F7
:102120000E941E22C601B5012091980230919902A9
:1021300040919A0250919B020E94A524181674F4B3
:10214000A0929802B0929902C0929A02D0929B02F9
:1021500080E090E0B601A5010E94A40DC601B50182
:1021600020919C0230919D0240919E0250919F02CD
:102170000E945623882374F4A0929C02B0929D0280
:10218000C0929E02D0929F0284E090E0B601A50129
:102190000E94A40D8EEE92E00E94F1158E01085F60
:1021A0001F4FC8016EE971E00E941E22C8010E9403
:1021B000760BC8010E94EB228EEE92E068E670E09A
:1021C0000E94CB138EEE92E06AEA71E04EE057E295
:1021D00023E230E00E94401540919C0250919D0204
:1021E00060919E0270919F028AE097E022E030E0C9
:1021F00000E010E0EE240E943B0EBC018EEE92E067
:1022000040E050E02DE230E00E94401540919802FD
:102210005091990260919A0270919B028AE097E036
:1022200022E030E00E943B0EBC018EEE92E04FE5D2
:1022300050E02DE230E00E9440158EEE92E066EA1A
:1022400072E00E94CB138AE097E0B601A50122E07C
:1022500030E00E943B0EBC018EEE92E04EE057E271
:102260002CE030E00E9440158EEE92E00E94BD14FA
:102270008EEE92E00E94F115CE0101960E94EB22B3
:102280002E960FB6F894DEBF0FBECDBFCF91DF9173
:102290001F910F91EF90DF90CF90BF90AF90089576
:1022A0000F931F93DF93CF93CDB7DEB760970FB631
:1022B000F894DEBF0FBECDBF8E010F5F1F4FC80168
:1022C0000E949D1684EE92E00E94541829873A8756
:1022D0004B875C876D877E878F87988BD801FE013F
:1022E000399688E001900D928150E1F7898188301C
:1022F00079F48A818431F8F48DE061E00E94351E22
:102300008CE060E00E94351E81E08093070710C0DA
:10231000843189F48A81843170F48DE061E00E9417
:10232000351E8CE060E00E94351E81E08093080736
:10233000809309070AC08DE060E00E94351E8CE0A2
:1023400061E00E94351E109209078981882329F5D2
:102350008A81813011F5109207071092080780E0FA
:1023600090E0A8E4B2EC8093980290939902A09335
:102370009A02B0939B0280E090E0A8E4B2E48093DC
:102380009C0290939D02A0939E02B0939F0260E6F0
:102390007AEE80E090E00E94361D0E94281D9B018D
:1023A000AC01609314077093150780931607909300
:1023B00017078091180790911907A0911A07B091FB
:1023C0001B078854944FAF4FBF4F281739074A0750
:1023D0005B07B8F1209318073093190740931A0749
:1023E00050931B078091A0029091A1028330910528
:1023F000A9F08430910534F48130910549F00297B9
:1024000001F509C08430910561F00597D1F411C040
:102410000E94140D08C00E946A1005C00E94061098
:1024200002C00E94880C8091A0029091A1020196A6
:1024300004C00E94FE0B81E090E09093A102809383
:10244000A00260960FB6F894DEBF0FBECDBFCF914D
:10245000DF911F910F910895FC01618340832283D6
:10246000089560387105F0F440345105D8F4FA014C
:1024700033E0F695E7953A95E1F7F695FE2FEE27CE
:10248000F795E795E60FF71FE80FF91F47705070B3
:1024900081E090E002C0880F991F4A95E2F72385FA
:1024A000282B2387089560387105F8F440345105CE
:1024B000E0F4FA01B3E0F695E795BA95E1F7F69501
:1024C000FE2FEE27F795E795E60FF71FE80FF91FA8
:1024D0004770507081E090E002C0880F991F4A95C4
:1024E000E2F7809523852823238708952F923F9232
:1024F0004F925F926F927F928F929F92AF92BF9214
:10250000CF92DF92EF92FF920F931F93DF93CF93BF
:1025100000D000D0CDB7DEB79C838B8349835A832C
:10252000322E232EDC0117962C911797422F50E064
:10253000CA01877090701696EC91169770E0189605
:102540003C91892B09F088C02695269526952E9FCB
:10255000C0011124631B7109869F3001879F700C95
:10256000969F700C1124E4E0F0E06E0E7F1E232D88
:10257000322DC9014C01AA24BB245BC000E010E04D
:10258000AB81BC8116968C91169790E0FC01AE9EB3
:10259000C001AF9E900DBE9E900D1124860D971D1B
:1025A0008C0D9D1D1496ED91FC911597E80FF91F68
:1025B000E4918E2F90E0002E02C0959587950A94A5
:1025C000E2F71A969C911A9780FF07C0A801480D60
:1025D000591D992339F4CD010DC0A801480D591D8D
:1025E000992331F48B819C81B7010E94531205C05D
:1025F0008B819C81B7010E9431120F5F1F4F083001
:10260000110509F0BDCF0894C11CD11C0894E11C30
:10261000F11CAB81BC8116968C9190E0C816D9064E
:102620000CF4ACCF0894A11CB11CE8E0F0E08E0ED5
:102630009F1EAB81BC8117968C9186958695869559
:1026400090E0A816B9060CF08FC089819A819C0190
:102650007901CC24DD24DDCF631B71098E2F90E03E
:10266000FC01E49FC001E59F900DF49F900D1124A3
:10267000E3E095958795EA95E1F7689F5001699F9A
:10268000B00C789FB00C112424E030E0A20EB31EF1
:10269000AB81BC811496ED91FC911597EA0DFB1D61
:1026A000E4914E2E552429813A81C9017C0157E0DD
:1026B000C52ED12C6624772448C0C2010C2C02C040
:1026C000959587950A94E2F7EB81FC81928580FFCE
:1026D00004C0992321F4CF010BC0992339F48B81D5
:1026E0009C81B701A8010E94531206C08B819C8176
:1026F000B701A8010E9431120894C108D108D7FE81
:1027000011C00894A11CB11CAB81BC811496ED9141
:10271000FC911597EA0DFB1DE4914E2E552447E0E0
:10272000C42ED12C0894811C911C0F5F1F4FEB818C
:10273000FC81878190E0881699060CF4BECF08943E
:10274000611C711C0894E11CF11CAB81BC811696C4
:102750008C9190E0681679063CF4832D922D9C01B3
:10276000890188249924E3CF0F900F900F900F9048
:10277000CF91DF911F910F91FF90EF90DF90CF905D
:10278000BF90AF909F908F907F906F905F904F9091
:102790003F902F900895DC01FB0115967C936E937A
:1027A0001497849116968C93169731968491179668
:1027B0008C9317973196849118968C93189731962D
:1027C000E4911996EC9319971A961C920895FF922A
:1027D0000F931F938C01F62EFC01818161E00E9412
:1027E000F61DF8018181608141E02F2D0E94DC1EE1
:1027F0001F910F91FF9008950F931F938C01FC017F
:10280000818161E00E94F61DF801818160E00E94F3
:10281000351EF801808161E00E94351EF80181813A
:1028200061E00E94351EF801818160E00E94F61D82
:102830001F910F910895FF920F931F938C01F62E15
:10284000FC01818161E00E94F61DF801818161E057
:102850000E94351EF801808161E00E94351EF8015A
:10286000818160E00E94351EF801808160E00E9455
:10287000351EF8018181608141E02F2D0E94DC1E10
:102880001F910F91FF90089582E161E00E94351E33
:1028900083E161E00E94351EE9EBF0E080818E7FEC
:1028A000808380818D7F80838CE08093B80085E079
:1028B0008093BC000895CF93DF93EC01898160E0A1
:1028C0000E94F61D888161E00E94351E89810E9468
:1028D000891E0197D9F3888160E00E94351EDF913F
:1028E000CF9108951F93CF93DF93EC01162F8B8127
:1028F000882339F184EE8093BC008091BC0087FF6F
:10290000FCCF88E78093BB0084EC8093BC0080916F
:10291000BC0087FFFCCF1092BB0084EC8093BC000E
:102920008091BC0087FFFCCF1093BB0084EC8093A8
:10293000BC008091BC0087FFFCCF84E98093BC0081
:1029400018C0CE0168E70E941B14CE010E945B14E0
:10295000CE0160E00E94E713CE010E945B14CE011D
:10296000612F0E94E713CE010E945B14CE010E94EA
:10297000FC13DF91CF911F910895DF92EF92FF92A8
:102980000F931F93CF93DF93EC01F89461E20E94C1
:102990007214CE0160E00E947214CE016FE70E94B3
:1029A0007214CE0162E20E947214CE0160E00E94B5
:1029B0007214CE0167E00E9472148B818823E1F0CB
:1029C00084EE8093BC008091BC0087FFFCCF88E739
:1029D0008093BB0084EC8093BC008091BC0087FF97
:1029E000FCCF80E48093BB0084EC8093BC0080919A
:1029F000BC0087FFFCCF0EC0CE0168E70E941B140D
:102A0000CE010E945B14CE0160E40E94E713CE0168
:102A10000E945B148E0194ECD92EE12C84E0F82EF8
:102A2000EC0EFD1E8B81882359F0F801838580937D
:102A3000BB00D092BC008091BC0087FFFCCF08C0D7
:102A4000CE01F80163850E94E713CE010E945B145A
:102A50000F5F1F4F0E151F0529F78B81882321F06B
:102A600084E98093BC0003C0CE010E94FC137894DB
:102A7000DF91CF911F910F91FF90EF90DF9008951C
:102A80008F929F92AF92BF92CF92DF92EF92FF927E
:102A90000F931F93CF93DF936C015B01EA01490110
:102AA000DB010D900020E9F77D010894E108F108B1
:102AB000E61AF70AB7E24F305B0779F4FC0186812A
:102AC00090E09C012E9DC0012F9D900D3E9D900D8C
:102AD0001124C0E8D0E0C81BD90B37E2CE30D307B1
:102AE000A1F4D60116968C9190E08E9D90018F9D59
:102AF000300D9E9D300D112480E890E0821B930BD9
:102B000062E070E00E942C25EB0100E010E016C0AE
:102B1000F50161915F01D60116968C9190E0089FB6
:102B2000A001099F500D189F500D11244C0F5D1FDF
:102B3000C60194010E9476120F5F1F4F0E151F05EC
:102B40003CF3DF91CF911F910F91FF90EF90DF90B9
:102B5000CF90BF90AF909F908F9008958F929F924B
:102B6000AF92BF92CF92DF92EF92FF920F931F939B
:102B7000DF93CF93CDB7DEB77C01FB016A0159012A
:102B80008DB69EB6448155814F5F5F4F8DB79EB71E
:102B9000841B950B0FB6F8949EBF0FBE8DBF0DB76B
:102BA0001EB70F5F1F4FCB01B80120E030E00E943D
:102BB0008821C701B801A60195010E9440150FB6F2
:102BC000F8949EBE0FBE8DBECF91DF911F910F91E5
:102BD000FF90EF90DF90CF90BF90AF909F908F903D
:102BE00008950B96FC0180E094E0DF019C011D92AA
:102BF00021503040E1F70895CF93DF93EC018A81B3
:102C00008F3FD9F061E00E94F61D8A8161E00E9449
:102C1000351E61E070E080E090E00E94361D8A8100
:102C200060E00E94351E6AE070E080E090E00E9463
:102C3000361D8A8161E00E94351E8981823149F406
:102C40008881833131F481E08B83CE010E9444146A
:102C500005C01B82888161E00E94F61DCE016EEAEC
:102C60000E947214CE0165ED0E947214CE0160E8DC
:102C70000E947214CE0168EA0E947214CE016FE3C2
:102C80000E947214CE0163ED0E947214CE0160E0C6
:102C90000E947214CE0160E40E947214CE016DE8AD
:102CA0000E947214CE0164E10E947214CE0160E2AF
:102CB0000E947214CE0160E00E947214CE0161EA9B
:102CC0000E947214CE0168EC0E947214CE016AED6B
:102CD0000E947214CE0162E10E947214CE0161E87A
:102CE0000E947214CE016FEC0E947214CE0169ED45
:102CF0000E947214CE0161EF0E947214CE016BED3E
:102D00000E947214CE0160E40E947214CE0164EA43
:102D10000E947214CE0166EA0E947214CE016FEA1C
:102D20000E947214CE010E94F115CE010E94BD14C2
:102D30001D821C82DF91CF910895FC018EED97E0FA
:102D40009683858381E0848383831082118212823B
:102D500083E087830895FC01618340830895FF9297
:102D60000F931F938C01F62EFC01818161E00E947C
:102D7000F61DF8018181608141E02F2D0E94DC1E4B
:102D80001F910F91FF9008950F931F938C01FC01E9
:102D9000818161E00E94F61DF801808160E00E945F
:102DA000351EF801818160E00E94351EF8018081A6
:102DB00061E00E94351EF801808160E00E94351EAE
:102DC000F801818160E00E94F61D1F910F91089526
:102DD0000F931F938C01FC01818161E00E94F61D1D
:102DE000F801808160E00E94351EF801818161E078
:102DF0000E94351EF801808161E00E94351EF801B5
:102E0000808160E00E94351EF801818160E00E94AF
:102E1000F61D1F910F9108950F931F938C01FC01D4
:102E2000818161E00E94F61DF801818160E00E94CD
:102E3000351EF801808161E00E94351EF801818114
:102E400061E00E94351EF801818160E00E94F61D5C
:102E50001F910F910895FF920F931F938C01F62EEF
:102E6000FC01818161E00E94F61DF801818161E031
:102E70000E94351EF801808161E00E94351EF80134
:102E8000818160E00E94351EF801808160E00E942F
:102E9000351EF8018181608141E02F2D0E94DC1EEA
:102EA0001F910F91FF900895FC0181818231F1F40F
:102EB00080818331D9F481E0818782E161E00E94E1
:102EC000351E83E161E00E94351E8091B9008E7F3E
:102ED0008093B9008091B9008D7F8093B9008CE018
:102EE0008093B80085E08093BC00089511868081AE
:102EF00061E00E94F61D0895CF93DF93EC01898174
:102F000060E00E94F61D888161E00E94351E898183
:102F10000E94891E0197D9F3888160E00E94351EC6
:102F2000DF91CF910895FF920F931F93CF93DF937B
:102F30008C01FC01818160E00E94F61DFF24C7E046
:102F4000D0E0F801808161E00E94351EF8018181A6
:102F50000E94891E90E00C2E02C0880F991F0A94CF
:102F6000E2F7F82A81E090E00E948F1DF80180814D
:102F700060E00E94351E2197FFEFCF3FDF0709F782
:102F80008F2DDF91CF911F910F91FF900895EF92B8
:102F9000FF920F931F93CF93DF93EC0189858823D2
:102FA00009F449C084EE8093BC008091BC0087FF87
:102FB000FCCF80ED8093BB0084EC8093BC008091BB
:102FC000BC0087FFFCCF1092BB0084EC8093BC0058
:102FD0008091BC0087FFFCCF84EE8093BC00809181
:102FE000BC0087FFFCCF81ED8093BB0084EC809315
:102FF000BC008091BC0087FFFCCFFE0120E030E0E8
:1030000094EC9093BC008091BC0087FFFCCF809132
:10301000BB0082832F5F3F4F31962730310589F700
:1030200084E88093BC008091BC0087FFFCCF84E9DA
:103030008093BC0032C0CE0160ED0E942B17CE0100
:103040000E947C17CE0160E00E94AF16CE010E9464
:103050007C17CE0161ED0E942B17CE010E947C17D8
:103060007E0100E010E0CE010E949317F7018283F9
:103070000630110521F0CE010E94C41603C0CE0116
:103080000E94E8160F5F1F4F0894E11CF11C0730E7
:10309000110549F7CE010E940C17DF91CF911F91C6
:1030A0000F91FF90EF900895BF92CF92DF92EF9231
:1030B000FF920F931F93DF93CF93CDB7DEB728977F
:1030C0000FB6F894DEBF0FBECDBF7C010E94C717BC
:1030D000F701A281AF77D380FFE7DF22F701848178
:1030E000282F30E0482F4F7087FF13C020723070B8
:1030F00015E0359527951A95E1F7C901880F991FB5
:10310000820F931F880F991F880F991FC42EC80E16
:1031100014C0C90180739070E4E095958795EA9595
:10312000E1F79C0173E0220F331F7A95E1F7880FD6
:10313000991F280F391FC42EC20EF70106815FE0C8
:10314000B52EB0220F7702950F7010E0C80143E052
:10315000880F991F4A95E1F7000F111F080F67812B
:10316000162F1F706F7762956F7070E0CB0123E0B0
:10317000880F991F2A95E1F7660F771F680F8085E2
:1031800095814A2F42954F7050E09A0173E0220FCB
:10319000331F7A95E1F7440F551F420FAF704A0F66
:1031A000AD2DA295AF70B0E09D01F3E0220F331F6B
:1031B000FA95E1F7AA0FBB1FA20FFFE0DF22AD0DCA
:1031C0000B0D610F282F22952F7030E0F90173E06D
:1031D000EE0FFF1F7A95E1F7220F331FE20FF31F67
:1031E0008F708E0F282F30E02053384F3F832E836F
:1031F000722F2C2D3A2F502F8F8128960FB6F894CE
:10320000DEBF0FBECDBFCF91DF911F910F91FF9019
:10321000EF90DF90CF90BF9008951F93DF93CF93EF
:10322000CDB7DEB7AC970FB6F894DEBF0FBECDBFFB
:103230009C01162FDE011996E5ECF2E08EE001907C
:103240000D928150E1F7DE015796E7EBF2E08EE058
:1032500001900D928150E1F78EED97E09F838E8370
:1032600081E08D838C8319821A821B82C9010E949E
:1032700054182DA33EA34FA358A769A77AA78BA7DD
:103280009CA7DE011196FE01B59688E001900D9293
:103290008150E1F788859E012F5F3F4F90E011300C
:1032A00049F4FC013197EE0FFF1FE20FF31F8689EF
:1032B000978908C0FC013197EE0FFF1FE20FF31F43
:1032C00080859185AC960FB6F894DEBF0FBECDBF5A
:1032D000CF91DF911F910895EF92FF920F931F936B
:1032E000DF93CF93CDB7DEB760970FB6F894DEBF0C
:1032F0000FBECDBFE62E142FF22E19821A821B822A
:1033000023E028870E94541829873A874B875C87D7
:103310006D877E878F87988BDE011196FE01399627
:1033200088E001900D928150E1F70C814D812E8152
:103330003F81123039F1133009F49EC0113009F089
:103340000CC10A3010F480E305C0802F6AE00E94AF
:103350000C25805D8093A202802F6AE00E940C25DC
:10336000905D9093A302F092A4024A3010F480E39F
:1033700005C0842F6AE00E940C25805D8093A50221
:10338000842F9AC081E0E81609F4F6C0C90168EEFE
:1033900073E00E942C25605D6093A202C90168EE73
:1033A00073E00E942C2564E670E00E942C25605D8D
:1033B0006093A302C90164E670E00E942C256AE0D4
:1033C00070E00E942C25605D6093A402C9016AE050
:1033D00070E00E942C25805D8093A502F092A602E9
:1033E000E2E0F0E018C080E38093A20208C0C901C7
:1033F0006AE070E00E942C25605D6093A202C90122
:103400006AE070E00E942C25805D8093A302F09218
:10341000A402E0E0F0E0DF01AE55BD4F4A3010F409
:1034200080E305C0842F6AE00E940C25805D13961E
:103430008C93DF01AE55BD4F842F6AE00E940C25AE
:10344000905D14969C9314971596FC9215970A30EC
:1034500010F480E305C0802F6AE00E940C25805D97
:1034600016968C93EE55FD4F802F6AE00E940C2536
:10347000905D9783108671C04A3010F480E305C0D8
:10348000842F6AE00E940C25805D8093A202842F25
:103490006AE00E940C25905D9093A302F092A40232
:1034A0000A3010F480E305C0802F6AE00E940C25EA
:1034B000805D8093A502802F6AE00E940C25905DBC
:1034C0009093A602F092A70281E0E816E1F4205D55
:1034D00037402A30310524F480E38093A80208C0E5
:1034E000C9016AE070E00E942C25605D6093A8022B
:1034F000C9016AE070E00E942C25805D8093A902DA
:103500001092AA022AC0C90168EE73E00E942C251D
:10351000605D6093A802C90168EE73E00E942C25EB
:1035200064E670E00E942C25605D6093A902C901E9
:1035300064E670E00E942C256AE070E00E942C2571
:10354000605D6093AA02C9016AE070E00E942C25C8
:10355000805D8093AB021092AC0282EA92E06096AA
:103560000FB6F894DEBF0FBECDBFCF91DF911F9194
:103570000F91FF90EF900895205D37402A3031057C
:103580000CF431CF34CF1F93DF93CF93CDB7DEB799
:1035900060970FB6F894DEBF0FBECDBF162F2EED8D
:1035A00037E03F832E8321E02D832C8323E028877F
:1035B0000E94541829873A874B875C876D877E87DE
:1035C0008F87988BDE011196FE01399688E0019075
:1035D0000D928150E1F74B813A8129812A3010F414
:1035E00080E305C0822F6AE00E940C25805D8093F5
:1035F000AD02822F6AE00E940C25905D9093AE028E
:103600008AE38093AF023A3010F480E305C0832F41
:103610006AE00E940C25805D8093B002832F6AE0EF
:103620000E940C25905D9093B1028AE38093B202D0
:10363000113019F41092B20214C04A3010F480E331
:1036400005C0842F6AE00E940C25805D8093B30240
:10365000842F6AE00E940C25905D9093B402109232
:10366000B5028DEA92E060960FB6F894DEBF0FBE09
:10367000CDBFCF91DF911F910895FC0166834783F1
:10368000208781E0858708950F931F938C01FC01AB
:10369000868160E00E94F61DF801868161E00E944B
:1036A000351EF80111861286138614861F910F911C
:1036B0000895CF92DF92EF92FF920F931F93CF93D3
:1036C000DF93EC010E94281D9B01AC0189859A853E
:1036D000AB85BC85281739074A075B0720F4198694
:1036E0001A861B861C868D85882371F489859A85A8
:1036F000AB85BC85281B390B4A0B5B0B205D374023
:103700004040504008F481C01D860E94281D6987F2
:103710007A878B879C871C821B821A821982188267
:103720008E8161E00E94351E6AEF70E080E090E0DB
:103730000E94361D8E8161E00E94F61D8E8160E040
:103740000E94351E64E170E080E090E00E94361D2A
:10375000F8948E8161E00E94351E88E290E00E941C
:103760008F1D8E8160E00E94F61D81E0EE2400E056
:1037700010E00AC0F39481E090E00E948F1D8FEF6B
:10378000F81629F40AC0822FFF24C82EDD248E816A
:103790000E94891E8C159D0569F38E810E94891EE9
:1037A000282F8FEFF816C9F0043090F000FD10C0FC
:1037B0008E2D869586958695FE01E80FF11D9081E8
:1037C000990F908388858F1510F491609083E3940E
:1037D0000F5F1F4F05351105B1F6789487E28E15FE
:1037E00010F030E013C030E04C8150E02981888136
:1037F00090E0820F911D2A81820F911D2B81820FF3
:10380000911D90704817590709F431E0832FDF911B
:10381000CF911F910F91FF90EF90DF90CF9008957F
:10382000EF92FF920F931F93CF93DF93EC010E94CF
:10383000591B8823A9F18F818B3031F08B3080F1B7
:103840008551823068F507C0688170E080E090E0C3
:103850000E94F32322C0688170E080E090E00E9423
:10386000F32320E030E040E853E40E94A9247B01E8
:103870008C01698170E0882777FD8095982F0E94E0
:10388000F5239B01AC01C801B7010E94F22220E0A0
:1038900030E040E251E40E945A23E62F692F04C031
:1038A000E0E070E080EC6FE72E2F372F482F562F87
:1038B000B901CA01DF91CF911F910F91FF90EF9055
:1038C0000895CF92DF92EF92FF920F931F93CF93C1
:1038D000DF93EC01C62E0E94591B882309F450C0C7
:1038E0008F818B3041F08B3008F44AC08551823093
:1038F00008F046C007C06A8170E080E090E00E9456
:10390000F32329C0DA806D2D70E06F7770708827FF
:1039100077FD8095982F0E94F52320E030E040E865
:1039200053E40E94A9247B018C016B8170E08827FD
:1039300077FD8095982F0E94F5239B01AC01C8016B
:10394000B7010E94F22220E030E040E251E40E9400
:103950005A23D7FC9058CC20B9F020E030E040E169
:1039600051E40E94A92420E030E040EA50E40E94A3
:103970005A2320E030E040E052E40E94F22204C0EA
:1039800060E070E080EC9FE7DF91CF911F910F9195
:10399000FF90EF90DF90CF900895F999FECF72BD20
:1039A00061BDF89A80B50895F999FECF1FBA72BD2E
:1039B00061BD40BD0FB6F894FA9AF99A0FBE08950A
:1039C0001F920F920FB60F9211242F933F938F9354
:1039D0009F93AF93BF938091210790912207A0916D
:1039E0002307B0912407309125070196A11DB11D31
:1039F000232F2D5F2D3720F02D570196A11DB11DCE
:103A0000209325078093210790932207A0932307F3
:103A1000B093240780911D0790911E07A0911F0766
:103A2000B09120070196A11DB11D80931D079093B1
:103A30001E07A0931F07B0932007BF91AF919F91DE
:103A40008F913F912F910F900FBE0F901F9018955F
:103A50008FB7F894209121073091220740912307D6
:103A6000509124078FBFB901CA0108959B01AC0191
:103A70007FB7F89480911D0790911E07A0911F07B2
:103A8000B091200766B5A89B05C06F3F19F001965D
:103A9000A11DB11D7FBFBA2FA92F982F8827860F90
:103AA000911DA11DB11D62E0880F991FAA1FBB1FA8
:103AB0006A95D1F7BC012DC0FFB7F89480911D071E
:103AC00090911E07A0911F07B0912007E6B5A89B13
:103AD00005C0EF3F19F00196A11DB11DFFBFBA2F20
:103AE000A92F982F88278E0F911DA11DB11DE2E0EF
:103AF000880F991FAA1FBB1FEA95D1F7861B970B4A
:103B0000885E9340C8F22150304040405040685198
:103B10007C4F211531054105510571F60895019736
:103B200039F0880F991F880F991F02970197F1F7B5
:103B30000895789484B5826084BD84B5816084BD25
:103B400085B5826085BD85B5816085BDEEE6F0E016
:103B5000808181608083E1E8F0E010828081826072
:103B60008083808181608083E0E8F0E080818160F3
:103B70008083E1EBF0E0808184608083E0EBF0E023
:103B8000808181608083EAE7F0E0808184608083C7
:103B90008081826080838081816080838081806871
:103BA00080831092C1000895982F8E3008F09E50A7
:103BB00097708091B6028295880F880F807C892B40
:103BC00080937C0080917A00806480937A00809159
:103BD0007A0086FDFCCF2091780040917900942FE7
:103BE00080E030E0282B392BC9010895CF93DF9373
:103BF000482F50E0CA018D509E4EFC013491415235
:103C00005E4EFA018491882369F190E0880F991F34
:103C1000FC01EF53FE4EA591B491FC01E553FE4E1D
:103C2000C591D491662351F42FB7F8948C91932FBA
:103C3000909589238C93888189230BC0623061F42D
:103C40002FB7F8948C91932F909589238C9388812A
:103C5000832B88832FBF06C09FB7F8948C91832B4A
:103C60008C939FBFDF91CF910895482F50E0CA01F8
:103C7000895F9D4EFC012491CA018D509E4EFC012E
:103C8000949141525E4EFA013491332309F440C0BD
:103C9000222351F1233071F0243028F42130A1F097
:103CA000223011F514C02630B1F02730C1F0243095
:103CB000D9F404C0809180008F7703C08091800088
:103CC0008F7D8093800010C084B58F7702C084B54B
:103CD0008F7D84BD09C08091B0008F7703C0809133
:103CE000B0008F7D8093B000E32FF0E0EE0FFF1F58
:103CF000E553FE4EA591B4912FB7F894662321F4B5
:103D00008C919095892302C08C91892B8C932FBF25
:103D10000895682F70E0CB01895F9D4EFC012491CE
:103D2000CB018D509E4EFC01449161527E4EFB01B1
:103D30009491992319F420E030E03CC0222351F102
:103D4000233071F0243028F42130A1F0223011F515
:103D500014C02630B1F02730C1F02430D9F404C0AB
:103D6000809180008F7703C0809180008F7D809349
:103D7000800010C084B58F7702C084B58F7D84BD6C
:103D800009C08091B0008F7703C08091B0008F7D13
:103D90008093B000892F90E0880F991F8B529E4E20
:103DA000FC01A591B4918C9120E030E0842311F0C6
:103DB00021E030E0C9010895BF92CF92DF92EF92E7
:103DC000FF920F931F93CF93DF93E82EF62EB42E1E
:103DD000C7E0D0E0022F10E087E0C82ED12CBB2036
:103DE00059F4B6016C1B7D0BC80102C095958795EF
:103DF0006A95E2F7BC0107C0B8010C2E02C07595A8
:103E000067950A94E2F761708E2D0E94351E8F2D02
:103E100061E00E94351E8F2D60E00E94351E2197C3
:103E20009FEFCF3FD907D9F6DF91CF911F910F9127
:103E3000FF90EF90DF90CF90BF90089508951F926C
:103E40000F920FB60F9211242F933F934F938F939E
:103E50009F93EF93FF938091C00082FD1DC040911E
:103E6000C60020916607309167072F5F3F4F2F7381
:103E7000307080916807909169072817390771F0B1
:103E8000E0916607F0916707EA5DF84F4083309351
:103E900067072093660702C08091C600FF91EF91EB
:103EA0009F918F914F913F912F910F900FBE0F9047
:103EB0001F901895E091BA07F091BB07E05CFF4FA7
:103EC0008191919120813181821B930B8F7390702E
:103ED000892B11F00E941E1F08951F920F920FB69A
:103EE0000F9211242F933F938F939F93EF93FF9300
:103EF0002091AA073091AB078091AC079091AD0754
:103F00002817390731F48091C1008F7D8093C1005B
:103F100014C0E091AC07F091AD07E659F84F20814D
:103F20008091AC079091AD0701968F73907090933C
:103F3000AD078093AC072093C600FF91EF919F914E
:103F40008F913F912F910F900FBE0F901F9018955A
:103F5000DC011C96ED91FC911D97E05CFF4F2191D7
:103F6000319180819181281B390B2F733070C901E9
:103F70000895DC011C96ED91FC911D97E05CFF4FCC
:103F800020813181E054F040DF01AE5BBF4F8D9165
:103F90009C9111972817390719F42FEF3FEF07C0AD
:103FA0008D919C91E80FF91F8081282F30E0C90185
:103FB0000895DC011C96ED91FC911D97E05CFF4F8C
:103FC00020813181E054F040DF01AE5BBF4F8D9125
:103FD0009C9111972817390719F42FEF3FEF10C064
:103FE0008D919C911197E80FF91F20818D919C91E3
:103FF000119701968F73907011969C938E9330E079
:10400000C9010895DC0191968C919197882339F02C
:104010005496ED91FC915597808186FFF9CF91964A
:104020001C920895CF93DF93EC01EE85FF85E05C51
:10403000FF4F20813181E054F0402F5F3F4F2F73BD
:104040003070DF01AE5BBF4F8D919C9111972817A7
:104050003907D1F3E05CFF4F80819181E054F0405B
:10406000E80FF91F6083EE85FF85E05CFF4F318329
:104070002083EE89FF89208181E090E00F8C02C0CF
:10408000880F991F0A94E2F7282B208381E089A3E7
:10409000EC89FD8980818064808381E090E0DF91FC
:1040A000CF9108951092B1071092B00788EE93E077
:1040B000A0E0B0E08093B2079093B307A093B40759
:1040C000B093B50787ED92E09093AF078093AE076A
:1040D00086E297E09093BB078093BA078AE697E061
:1040E0009093BD078093BC0785EC90E09093BF0749
:1040F0008093BE0784EC90E09093C1078093C00743
:1041000080EC90E09093C3078093C20781EC90E02D
:104110009093C5078093C40782EC90E09093C70703
:104120008093C60786EC90E09093C9078093C807F8
:1041300084E08093CA0783E08093CB0787E0809375
:10414000CC0785E08093CD0781E08093CE0708956A
:10415000CF93DF930E94991D0E940E0ECAE5DFE106
:104160000E9450112097E1F30E945A1FF9CFCF927D
:10417000DF92EF92FF920F931F93CF93DF937C0117
:104180006B018A01C0E0D0E00FC0D6016D916D01D6
:10419000D701ED91FC910190F081E02DC7010995C7
:1041A000C80FD91F015010400115110571F7CE013C
:1041B000DF91CF911F910F91FF90EF90DF90CF9003
:1041C0000895EF92FF920F931F938C01DC01ED9104
:1041D000FC910190F081E02D6DE009957C01D80102
:1041E000ED91FC910190F081E02DC8016AE0099504
:1041F0009C012E0D3F1DC9011F910F91FF90EF9063
:104200000895CF93DF93EC016115710519F420E057
:1042100030E00FC0DB010D900020E9F71197A61BDD
:10422000B70BE881F9810280F381E02DAD0109959A
:104230009C01C901DF91CF910895EF92FF920F93F6
:104240001F937C010E9401218C01C7010E94E12083
:10425000080F191FC8011F910F91FF90EF9008954B
:10426000AF92BF92CF92DF92EF92FF920F931F9384
:10427000CF93DF935C016B01EE24FF24C0E0D0E01C
:1042800010C0D501ED91FC9100811181C601BE01E4
:104290000E947721682FC501F8010995E80EF91EE3
:1042A0002196F60184819581C817D90750F3C7017B
:1042B000DF91CF911F910F91FF90EF90DF90CF9002
:1042C000BF90AF900895EF92FF920F931F937C01E0
:1042D0000E9430218C01C7010E94E1209C01200F27
:1042E000311FC9011F910F91FF90EF900895FC01BC
:1042F000848195816817790748F40190F081E02D59
:10430000309721F0E60FF71F8081089580E008952F
:104310000F931F93CF93DF93FC018B014115510540
:10432000F9F061157105E1F084819581281739074D
:1043300018F0FB01108214C041505040EC01C21B28
:10434000D30B4C175D0708F4EA0160817181620F9D
:10435000731FC801AE010E94210BC00FD11F18822C
:10436000DF91CF911F910F9108950F931F93CF93DA
:10437000DF93EC018B016F5F7F4F888199810E94F1
:104380003C0A009711F480E005C0998388831B8361
:104390000A8381E0DF91CF911F910F910895CF9310
:1043A000DF93EC0188819981892B29F08A819B8197
:1043B0008617970760F4CE010E94B521882341F04B
:1043C0008C819D81892B19F4E881F981108281E02B
:1043D000DF91CF910895CF93DF93EC01888199818C
:1043E000009711F00E94E409198218821D821C8234
:1043F0001B821A82DF91CF910895EF92FF920F9363
:104400001F93CF93DF93EC017B018A01BA010E94D5
:10441000CF21882321F4CE010E94EB2107C01D8308
:104420000C8388819981B7010E941A0BCE01DF911C
:10443000CF911F910F91FF90EF900895CF93DF934D
:10444000EC01198218821B821A821D821C821E8234
:104450006115710551F0DB010D900020E9F711970E
:10446000A61BB70BAD010E94FD21DF91CF910895EE
:104470000F931F93182F092F6115710559F0DB0158
:104480000D900020E9F71197A61BB70BAD010E9414
:10449000FD2102C00E94EB21812F902F1F910F91CF
:1044A0000895EF92FF920F931F93DF93CF93CDB7B1
:1044B000DEB762970FB6F894DEBF0FBECDBF8C019A
:1044C000CB01F801118210821382128215821482AC
:1044D00016827E010894E11CF11CB70150E00E9495
:1044E000300BC801B7010E94382262960FB6F894CB
:1044F000DEBF0FBECDBFCF91DF911F910F91FF9017
:10450000EF900895BF92CF92DF92EF92FF920F93B8
:104510001F93CF93DF93082FB92E6B017A01E90126
:104520002417350710F4EA017901802F9B2D61E9EA
:1045300072E00E941E22D60114968D919C911597CF
:104540008E159F05D0F08C179D0708F4EC01D6015D
:10455000ED91FC911197EC0FFD1F108110826D9170
:104560007C916E0D7F1D802F9B2D0E943822D601DD
:10457000ED91FC91EC0FFD1F1083802F9B2DDF919F
:10458000CF911F910F91FF90EF90DF90CF90BF9050
:104590000895CF93DF93EC01FB018617970761F035
:1045A000608171816115710529F0448155810E94F6
:1045B000FD2102C00E94EB21CE01DF91CF91089531
:1045C000FC011182108213821282158214821682DB
:1045D0000E94C9220895FC01808191810E94E40912
:1045E00008955058BB27AA270ED075C166D130F068
:1045F0006BD120F031F49F3F11F41EF45BC10EF437
:10460000E095E7FB51C1E92F77D180F3BA17620734
:1046100073078407950718F071F49EF58FC10EF4A7
:10462000E0950B2EBA2FA02D0B01B90190010C01C2
:10463000CA01A0011124FF27591B99F0593F50F4DA
:10464000503E68F11A16F040A22F232F342F442732
:10465000585FF3CF469537952795A795F04053952A
:10466000C9F77EF41F16BA0B620B730B840BBAF0FA
:104670009150A1F0FF0FBB1F661F771F881FC2F765
:104680000EC0BA0F621F731F841F48F48795779579
:104690006795B795F7959E3F08F0B3CF9395880F30
:1046A00008F09927EE0F979587950895D9D008F4CB
:1046B00081E008950CD00FC107D140F0FED030F05A
:1046C00021F45F3F19F0F0C0511139C1F3C014D18A
:1046D00098F39923C9F35523B1F3951B550BBB27C9
:1046E000AA2762177307840738F09F5F5F4F220F76
:1046F000331F441FAA1FA9F333D00E2E3AF0E0E86F
:1047000030D091505040E695001CCAF729D0FE2FBA
:1047100027D0660F771F881FBB1F2617370748074C
:10472000AB07B0E809F0BB0B802DBF01FF27935802
:104730005F4F2AF09E3F510568F0B6C000C15F3F51
:10474000ECF3983EDCF3869577956795B795F795EA
:104750009F5FC9F7880F911D9695879597F90895E2
:10476000E1E0660F771F881FBB1F6217730784077E
:10477000BA0720F0621B730B840BBA0BEE1F88F78D
:10478000E095089504D06894B111D9C00895BCD0C3
:1047900088F09F5790F0B92F9927B751A0F0D1F02A
:1047A000660F771F881F991F1AF0BA95C9F712C0B4
:1047B000B13081F0C3D0B1E00895C0C0672F782F29
:1047C0008827B85F39F0B93FCCF386957795679520
:1047D000B395D9F73EF490958095709561957F4F8C
:1047E0008F4F9F4F0895E89409C097FB3EF4909532
:1047F0008095709561957F4F8F4F9F4F9923A9F0BA
:10480000F92F96E9BB279395F69587957795679548
:10481000B795F111F8CFFAF4BB0F11F460FF1BC08C
:104820006F5F7F4F8F4F9F4F16C0882311F096E91F
:1048300011C0772321F09EE8872F762F05C06623CD
:1048400071F096E8862F70E060E02AF09A95660F86
:10485000771F881FDAF7880F9695879597F908953F
:10486000990F0008550FAA0BE0E8FEEF1616170681
:10487000E807F907C0F012161306E407F50798F0E9
:10488000621B730B840B950B39F40A2661F0232B02
:10489000242B252B21F408950A2609F4A140A6957E
:1048A0008FEF811D811D089597F99F6780E870E063
:1048B00060E008959FEF80EC089500240A94161696
:1048C000170618060906089500240A9412161306FE
:1048D000140605060895092E0394000C11F488238C
:1048E00052F0BB0F40F4BF2B11F460FF04C06F5FA8
:1048F0007F4F8F4F9F4F089557FD9058440F551F7E
:1049000059F05F3F71F04795880F97FB991F61F051
:104910009F3F79F087950895121613061406551FC8
:10492000F2CF4695F1DF08C0161617061806991F34
:10493000F1CF86957105610508940895E894BB2729
:1049400066277727CB0197F908958ADF08F48FEF60
:1049500008950BD0C0CFB1DF28F0B6DF18F0952353
:1049600009F0A2CFA7CF1124EACFC6DFA0F3959F0D
:10497000D1F3950F50E0551F629FF001729FBB2746
:10498000F00DB11D639FAA27F00DB11DAA1F649FF2
:104990006627B00DA11D661F829F2227B00DA11DA5
:1049A000621F739FB00DA11D621F839FA00D611D2B
:1049B000221F749F3327A00D611D231F849F600D4C
:1049C000211D822F762F6A2F11249F5750408AF085
:1049D000E1F088234AF0EE0FFF1FBB1F661F771F11
:1049E000881F91505040A9F79E3F510570F05CCF51
:1049F000A6CF5F3FECF3983EDCF3869577956795FD
:104A0000B795F795E7959F5FC1F7FE2B880F911D2E
:104A10009695879597F90895991B79E004C0991F99
:104A2000961708F0961B881F7A95C9F78095089508
:104A3000AA1BBB1B51E107C0AA1FBB1FA617B707C4
:104A400010F0A61BB70B881F991F5A95A9F78095E0
:104A50009095BC01CD01089597FB092E07260AD039
:104A600077FD04D0E5DF06D000201AF4709561953B
:104A70007F4F0895F6F7909581959F4F0895EE0F1B
:104A8000FF1F0590F491E02D09942F923F924F92D1
:104A90005F926F927F928F929F92AF92BF92CF92CE
:104AA000DF92EF92FF920F931F93CF93DF93CDB7D7
:104AB000DEB7CA1BDB0B0FB6F894DEBF0FBECDBF4F
:104AC00009942A88398848885F846E847D848C8420
:104AD0009B84AA84B984C884DF80EE80FD800C8129
:104AE0001B81AA81B981CE0FD11D0FB6F894DEBF0C
:0C4AF0000FBECDBFED010895F894FFCF7C
:104AFC005469746C650053746174730047686A641C
:104B0C007468726600476A6B626420656E686A76C8
:104B1C002020202D004C460059544E00476A6B62F1
:104B2C00642064747874686A64202D0048746B7413
:104B3C00202D0044726B004473726B00536F6C69D0
:104B4C006400446B663B796A636E6D20676A7864B7
:104B5C0073004A5854594D20444B463A594A004424
:104B6C004B463A59465A20474A5844460043457BDF
:104B7C00465A20474A584446002F0048756D004459
:104B8C006B663B796A636E6D005465726D004E7492
:104B9C0076677468666E656873004D696E202020B8
:104BAC002020202020204D6178004A616E0046654F
:104BBC0062004D617200417072004D6179004A755E
:104BCC006E004A756C0041756700536570004F6349
:104BDC0074004E6F7600446563004A616E756172B5
:104BEC0079004665627275617279004D6172636815
:104BFC0000417072696C004A756E65004A756C797B
:104C0C00004175677573740053657074656D6265EA
:104C1C0072004F63746F626572004E6F76656D62E1
:104C2C00657200446563656D626572004D6F6E0060
:104C3C0054756500576564005468750046726900C8
:104C4C005361740053756E004D6F6E64617900543E
:104C5C00756573646179005765646E657364617919
:104C6C000054687572736461790046726964617985
:104C7C000053617475726461790053756E64617967
:104C8C0000002000D4070000000048C20000484289
:104C9C0001007878787878787878787800787878EF
:104CAC00787878787800013C024002440248024C43
:104CBC00025002540258025F02670271027A0281AA
:104CCC00028A02000000001220B720A81FD91FB9C9
:044CDC001F02200093
:00000001FF
